{
  "_format": "hh3-artifact-1",
  "contractName": "LockFactory",
  "sourceName": "contracts/lockFactory/Factory.sol",
  "abi": [
    {
      "inputs": [],
      "name": "InvalidEndTime",
      "type": "error"
    },
    {
      "inputs": [],
      "name": "TransferFailed",
      "type": "error"
    },
    {
      "anonymous": false,
      "inputs": [
        {
          "indexed": true,
          "internalType": "address",
          "name": "lock",
          "type": "address"
        },
        {
          "indexed": true,
          "internalType": "address",
          "name": "token",
          "type": "address"
        },
        {
          "indexed": true,
          "internalType": "address",
          "name": "owner",
          "type": "address"
        },
        {
          "indexed": false,
          "internalType": "uint256",
          "name": "lockingAmount",
          "type": "uint256"
        },
        {
          "indexed": false,
          "internalType": "uint256",
          "name": "lockTimeEnd",
          "type": "uint256"
        },
        {
          "indexed": false,
          "internalType": "string",
          "name": "projectImageUrl",
          "type": "string"
        }
      ],
      "name": "LockCreated",
      "type": "event"
    },
    {
      "inputs": [
        {
          "internalType": "address",
          "name": "_token",
          "type": "address"
        },
        {
          "internalType": "address",
          "name": "_owner",
          "type": "address"
        },
        {
          "internalType": "uint256",
          "name": "_lockingAmount",
          "type": "uint256"
        },
        {
          "internalType": "uint256",
          "name": "_lockTimeEnd",
          "type": "uint256"
        },
        {
          "internalType": "string",
          "name": "_projectImageUrl",
          "type": "string"
        }
      ],
      "name": "createLock",
      "outputs": [
        {
          "internalType": "address",
          "name": "",
          "type": "address"
        }
      ],
      "stateMutability": "nonpayable",
      "type": "function"
    }
  ],
  "bytecode": "0x6080604052348015600e575f5ffd5b506120218061001c5f395ff3fe608060405234801561000f575f5ffd5b5060043610610029575f3560e01c80635cc3d2651461002d575b5f5ffd5b6100476004803603810190610042919061049d565b61005d565b604051610054919061053f565b60405180910390f35b5f42831015610098576040517f38af65f700000000000000000000000000000000000000000000000000000000815260040160405180910390fd5b5f86868686866040516100aa906102b6565b6100b89594939291906105c7565b604051809103905ff0801580156100d1573d5f5f3e3d5ffd5b5090505f73ffffffffffffffffffffffffffffffffffffffff168773ffffffffffffffffffffffffffffffffffffffff16036101ac575f8173ffffffffffffffffffffffffffffffffffffffff168660405161012c9061064c565b5f6040518083038185875af1925050503d805f8114610166576040519150601f19603f3d011682016040523d82523d5f602084013e61016b565b606091505b50509050806101a6576040517f90b8ec1800000000000000000000000000000000000000000000000000000000815260040160405180910390fd5b50610229565b8673ffffffffffffffffffffffffffffffffffffffff1663a9059cbb82876040518363ffffffff1660e01b81526004016101e7929190610660565b6020604051808303815f875af1158015610203573d5f5f3e3d5ffd5b505050506040513d601f19601f8201168201806040525081019061022791906106bc565b505b8573ffffffffffffffffffffffffffffffffffffffff168773ffffffffffffffffffffffffffffffffffffffff168273ffffffffffffffffffffffffffffffffffffffff167fc98da8b7b2749c5f25a819bec576e684d88688e85ea51bf6326bcf27912606a68888886040516102a1939291906106e7565b60405180910390a48091505095945050505050565b6118c88061072483390190565b5f604051905090565b5f5ffd5b5f5ffd5b5f73ffffffffffffffffffffffffffffffffffffffff82169050919050565b5f6102fd826102d4565b9050919050565b61030d816102f3565b8114610317575f5ffd5b50565b5f8135905061032881610304565b92915050565b5f819050919050565b6103408161032e565b811461034a575f5ffd5b50565b5f8135905061035b81610337565b92915050565b5f5ffd5b5f5ffd5b5f601f19601f8301169050919050565b7f4e487b71000000000000000000000000000000000000000000000000000000005f52604160045260245ffd5b6103af82610369565b810181811067ffffffffffffffff821117156103ce576103cd610379565b5b80604052505050565b5f6103e06102c3565b90506103ec82826103a6565b919050565b5f67ffffffffffffffff82111561040b5761040a610379565b5b61041482610369565b9050602081019050919050565b828183375f83830152505050565b5f61044161043c846103f1565b6103d7565b90508281526020810184848401111561045d5761045c610365565b5b610468848285610421565b509392505050565b5f82601f83011261048457610483610361565b5b813561049484826020860161042f565b91505092915050565b5f5f5f5f5f60a086880312156104b6576104b56102cc565b5b5f6104c38882890161031a565b95505060206104d48882890161031a565b94505060406104e58882890161034d565b93505060606104f68882890161034d565b925050608086013567ffffffffffffffff811115610517576105166102d0565b5b61052388828901610470565b9150509295509295909350565b610539816102f3565b82525050565b5f6020820190506105525f830184610530565b92915050565b6105618161032e565b82525050565b5f81519050919050565b5f82825260208201905092915050565b8281835e5f83830152505050565b5f61059982610567565b6105a38185610571565b93506105b3818560208601610581565b6105bc81610369565b840191505092915050565b5f60a0820190506105da5f830188610530565b6105e76020830187610530565b6105f46040830186610558565b6106016060830185610558565b8181036080830152610613818461058f565b90509695505050505050565b5f81905092915050565b50565b5f6106375f8361061f565b915061064282610629565b5f82019050919050565b5f6106568261062c565b9150819050919050565b5f6040820190506106735f830185610530565b6106806020830184610558565b9392505050565b5f8115159050919050565b61069b81610687565b81146106a5575f5ffd5b50565b5f815190506106b681610692565b92915050565b5f602082840312156106d1576106d06102cc565b5b5f6106de848285016106a8565b91505092915050565b5f6060820190506106fa5f830186610558565b6107076020830185610558565b8181036040830152610719818461058f565b905094935050505056fe608060405234801561000f575f5ffd5b506040516118c83803806118c8833981810160405281019061003191906103fd565b835f73ffffffffffffffffffffffffffffffffffffffff168173ffffffffffffffffffffffffffffffffffffffff16036100a2575f6040517f1e4fbdf7000000000000000000000000000000000000000000000000000000008152600401610099919061049f565b60405180910390fd5b6100b18161016260201b60201c565b508460015f6101000a81548173ffffffffffffffffffffffffffffffffffffffff021916908373ffffffffffffffffffffffffffffffffffffffff1602179055505f73ffffffffffffffffffffffffffffffffffffffff168573ffffffffffffffffffffffffffffffffffffffff1614600160146101000a81548160ff02191690831515021790555081600281905550806003908161015091906106bf565b5082600481905550505050505061078e565b5f5f5f9054906101000a900473ffffffffffffffffffffffffffffffffffffffff169050815f5f6101000a81548173ffffffffffffffffffffffffffffffffffffffff021916908373ffffffffffffffffffffffffffffffffffffffff1602179055508173ffffffffffffffffffffffffffffffffffffffff168173ffffffffffffffffffffffffffffffffffffffff167f8be0079c531659141344cd1fd0a4f28419497f9722a3daafe3b4186f6b6457e060405160405180910390a35050565b5f604051905090565b5f5ffd5b5f5ffd5b5f73ffffffffffffffffffffffffffffffffffffffff82169050919050565b5f61025d82610234565b9050919050565b61026d81610253565b8114610277575f5ffd5b50565b5f8151905061028881610264565b92915050565b5f819050919050565b6102a08161028e565b81146102aa575f5ffd5b50565b5f815190506102bb81610297565b92915050565b5f5ffd5b5f5ffd5b5f601f19601f8301169050919050565b7f4e487b71000000000000000000000000000000000000000000000000000000005f52604160045260245ffd5b61030f826102c9565b810181811067ffffffffffffffff8211171561032e5761032d6102d9565b5b80604052505050565b5f610340610223565b905061034c8282610306565b919050565b5f67ffffffffffffffff82111561036b5761036a6102d9565b5b610374826102c9565b9050602081019050919050565b8281835e5f83830152505050565b5f6103a161039c84610351565b610337565b9050828152602081018484840111156103bd576103bc6102c5565b5b6103c8848285610381565b509392505050565b5f82601f8301126103e4576103e36102c1565b5b81516103f484826020860161038f565b91505092915050565b5f5f5f5f5f60a086880312156104165761041561022c565b5b5f6104238882890161027a565b95505060206104348882890161027a565b9450506040610445888289016102ad565b9350506060610456888289016102ad565b925050608086015167ffffffffffffffff81111561047757610476610230565b5b610483888289016103d0565b9150509295509295909350565b61049981610253565b82525050565b5f6020820190506104b25f830184610490565b92915050565b5f81519050919050565b7f4e487b71000000000000000000000000000000000000000000000000000000005f52602260045260245ffd5b5f600282049050600182168061050657607f821691505b602082108103610519576105186104c2565b5b50919050565b5f819050815f5260205f209050919050565b5f6020601f8301049050919050565b5f82821b905092915050565b5f6008830261057b7fffffffffffffffffffffffffffffffffffffffffffffffffffffffffffffffff82610540565b6105858683610540565b95508019841693508086168417925050509392505050565b5f819050919050565b5f6105c06105bb6105b68461028e565b61059d565b61028e565b9050919050565b5f819050919050565b6105d9836105a6565b6105ed6105e5826105c7565b84845461054c565b825550505050565b5f5f905090565b6106046105f5565b61060f8184846105d0565b505050565b5b81811015610632576106275f826105fc565b600181019050610615565b5050565b601f821115610677576106488161051f565b61065184610531565b81016020851015610660578190505b61067461066c85610531565b830182610614565b50505b505050565b5f82821c905092915050565b5f6106975f198460080261067c565b1980831691505092915050565b5f6106af8383610688565b9150826002028217905092915050565b6106c8826104b8565b67ffffffffffffffff8111156106e1576106e06102d9565b5b6106eb82546104ef565b6106f6828285610636565b5f60209050601f831160018114610727575f8415610715578287015190505b61071f85826106a4565b865550610786565b601f1984166107358661051f565b5f5b8281101561075c57848901518255600182019150602085019450602081019050610737565b868310156107795784890151610775601f891682610688565b8355505b6001600288020188555050505b505050505050565b61112d8061079b5f395ff3fe60806040526004361061009f575f3560e01c806373cfc6b21161006357806373cfc6b2146101a05780638da5cb5b146101ca5780639a610f38146101f4578063e72bb7601461021e578063f2fde38b14610246578063fc0c546a1461026e576100f4565b806318c540b6146100f857806325ab292e146101225780633c9a2a1a1461014c5780633ccfd60b14610174578063715018a61461018a576100f4565b366100f4573373ffffffffffffffffffffffffffffffffffffffff167f88a5966d370b9919b20f3e2c13ff65706f196a4e32cc2c12bf57088f88525874346040516100ea919061093e565b60405180910390a2005b5f5ffd5b348015610103575f5ffd5b5061010c610298565b60405161011991906109c7565b60405180910390f35b34801561012d575f5ffd5b50610136610324565b604051610143919061093e565b60405180910390f35b348015610157575f5ffd5b50610172600480360381019061016d9190610a22565b61032a565b005b34801561017f575f5ffd5b506101886103c1565b005b348015610195575f5ffd5b5061019e610444565b005b3480156101ab575f5ffd5b506101b4610457565b6040516101c19190610a67565b60405180910390f35b3480156101d5575f5ffd5b506101de61046a565b6040516101eb9190610abf565b60405180910390f35b3480156101ff575f5ffd5b50610208610491565b604051610215919061093e565b60405180910390f35b348015610229575f5ffd5b50610244600480360381019061023f9190610c04565b610497565b005b348015610251575f5ffd5b5061026c60048036038101906102679190610c75565b6104b2565b005b348015610279575f5ffd5b50610282610536565b60405161028f9190610abf565b60405180910390f35b600380546102a590610ccd565b80601f01602080910402602001604051908101604052809291908181526020018280546102d190610ccd565b801561031c5780601f106102f35761010080835404028352916020019161031c565b820191905f5260205f20905b8154815290600101906020018083116102ff57829003601f168201915b505050505081565b60045481565b61033261055b565b600254811160025482909161037e576040517f64ef5663000000000000000000000000000000000000000000000000000000008152600401610375929190610cfd565b60405180910390fd5b5050806002819055507f58ae8539310b13b3c818e29f630eec0786d040ebcdddb7ed8566ba460a463d1e816040516103b6919061093e565b60405180910390a150565b6103c961055b565b6002544211600254429091610415576040517fcd68749f00000000000000000000000000000000000000000000000000000000815260040161040c929190610cfd565b60405180910390fd5b5050600160149054906101000a900460ff1615610439576104346105e2565b610442565b6104416106e8565b5b565b61044c61055b565b6104555f61085e565b565b600160149054906101000a900460ff1681565b5f5f5f9054906101000a900473ffffffffffffffffffffffffffffffffffffffff16905090565b60025481565b61049f61055b565b80600390816104ae9190610ec4565b5050565b6104ba61055b565b5f73ffffffffffffffffffffffffffffffffffffffff168173ffffffffffffffffffffffffffffffffffffffff160361052a575f6040517f1e4fbdf70000000000000000000000000000000000000000000000000000000081526004016105219190610abf565b60405180910390fd5b6105338161085e565b50565b60015f9054906101000a900473ffffffffffffffffffffffffffffffffffffffff1681565b61056361091f565b73ffffffffffffffffffffffffffffffffffffffff1661058161046a565b73ffffffffffffffffffffffffffffffffffffffff16146105e0576105a461091f565b6040517f118cdaa70000000000000000000000000000000000000000000000000000000081526004016105d79190610abf565b60405180910390fd5b565b6105ea61055b565b5f4790505f3373ffffffffffffffffffffffffffffffffffffffff168260405161061390610fc0565b5f6040518083038185875af1925050503d805f811461064d576040519150601f19603f3d011682016040523d82523d5f602084013e610652565b606091505b5050905080610696576040517f08c379a000000000000000000000000000000000000000000000000000000000815260040161068d9061101e565b60405180910390fd5b3373ffffffffffffffffffffffffffffffffffffffff167f884edad9ce6fa2440d8a54cc123490eb96d2768479d49ff9c7366125a9424364836040516106dc919061093e565b60405180910390a25050565b6106f061055b565b5f60015f9054906101000a900473ffffffffffffffffffffffffffffffffffffffff1690505f8173ffffffffffffffffffffffffffffffffffffffff166370a08231306040518263ffffffff1660e01b815260040161074f9190610abf565b602060405180830381865afa15801561076a573d5f5f3e3d5ffd5b505050506040513d601f19601f8201168201806040525081019061078e9190611050565b90508173ffffffffffffffffffffffffffffffffffffffff1663a9059cbb33836040518363ffffffff1660e01b81526004016107cb92919061107b565b6020604051808303815f875af11580156107e7573d5f5f3e3d5ffd5b505050506040513d601f19601f8201168201806040525081019061080b91906110cc565b503373ffffffffffffffffffffffffffffffffffffffff167f884edad9ce6fa2440d8a54cc123490eb96d2768479d49ff9c7366125a942436482604051610852919061093e565b60405180910390a25050565b5f5f5f9054906101000a900473ffffffffffffffffffffffffffffffffffffffff169050815f5f6101000a81548173ffffffffffffffffffffffffffffffffffffffff021916908373ffffffffffffffffffffffffffffffffffffffff1602179055508173ffffffffffffffffffffffffffffffffffffffff168173ffffffffffffffffffffffffffffffffffffffff167f8be0079c531659141344cd1fd0a4f28419497f9722a3daafe3b4186f6b6457e060405160405180910390a35050565b5f33905090565b5f819050919050565b61093881610926565b82525050565b5f6020820190506109515f83018461092f565b92915050565b5f81519050919050565b5f82825260208201905092915050565b8281835e5f83830152505050565b5f601f19601f8301169050919050565b5f61099982610957565b6109a38185610961565b93506109b3818560208601610971565b6109bc8161097f565b840191505092915050565b5f6020820190508181035f8301526109df818461098f565b905092915050565b5f604051905090565b5f5ffd5b5f5ffd5b610a0181610926565b8114610a0b575f5ffd5b50565b5f81359050610a1c816109f8565b92915050565b5f60208284031215610a3757610a366109f0565b5b5f610a4484828501610a0e565b91505092915050565b5f8115159050919050565b610a6181610a4d565b82525050565b5f602082019050610a7a5f830184610a58565b92915050565b5f73ffffffffffffffffffffffffffffffffffffffff82169050919050565b5f610aa982610a80565b9050919050565b610ab981610a9f565b82525050565b5f602082019050610ad25f830184610ab0565b92915050565b5f5ffd5b5f5ffd5b7f4e487b71000000000000000000000000000000000000000000000000000000005f52604160045260245ffd5b610b168261097f565b810181811067ffffffffffffffff82111715610b3557610b34610ae0565b5b80604052505050565b5f610b476109e7565b9050610b538282610b0d565b919050565b5f67ffffffffffffffff821115610b7257610b71610ae0565b5b610b7b8261097f565b9050602081019050919050565b828183375f83830152505050565b5f610ba8610ba384610b58565b610b3e565b905082815260208101848484011115610bc457610bc3610adc565b5b610bcf848285610b88565b509392505050565b5f82601f830112610beb57610bea610ad8565b5b8135610bfb848260208601610b96565b91505092915050565b5f60208284031215610c1957610c186109f0565b5b5f82013567ffffffffffffffff811115610c3657610c356109f4565b5b610c4284828501610bd7565b91505092915050565b610c5481610a9f565b8114610c5e575f5ffd5b50565b5f81359050610c6f81610c4b565b92915050565b5f60208284031215610c8a57610c896109f0565b5b5f610c9784828501610c61565b91505092915050565b7f4e487b71000000000000000000000000000000000000000000000000000000005f52602260045260245ffd5b5f6002820490506001821680610ce457607f821691505b602082108103610cf757610cf6610ca0565b5b50919050565b5f604082019050610d105f83018561092f565b610d1d602083018461092f565b9392505050565b5f819050815f5260205f209050919050565b5f6020601f8301049050919050565b5f82821b905092915050565b5f60088302610d807fffffffffffffffffffffffffffffffffffffffffffffffffffffffffffffffff82610d45565b610d8a8683610d45565b95508019841693508086168417925050509392505050565b5f819050919050565b5f610dc5610dc0610dbb84610926565b610da2565b610926565b9050919050565b5f819050919050565b610dde83610dab565b610df2610dea82610dcc565b848454610d51565b825550505050565b5f5f905090565b610e09610dfa565b610e14818484610dd5565b505050565b5b81811015610e3757610e2c5f82610e01565b600181019050610e1a565b5050565b601f821115610e7c57610e4d81610d24565b610e5684610d36565b81016020851015610e65578190505b610e79610e7185610d36565b830182610e19565b50505b505050565b5f82821c905092915050565b5f610e9c5f1984600802610e81565b1980831691505092915050565b5f610eb48383610e8d565b9150826002028217905092915050565b610ecd82610957565b67ffffffffffffffff811115610ee657610ee5610ae0565b5b610ef08254610ccd565b610efb828285610e3b565b5f60209050601f831160018114610f2c575f8415610f1a578287015190505b610f248582610ea9565b865550610f8b565b601f198416610f3a86610d24565b5f5b82811015610f6157848901518255600182019150602085019450602081019050610f3c565b86831015610f7e5784890151610f7a601f891682610e8d565b8355505b6001600288020188555050505b505050505050565b5f81905092915050565b50565b5f610fab5f83610f93565b9150610fb682610f9d565b5f82019050919050565b5f610fca82610fa0565b9150819050919050565b7f5472616e73666572206661696c656400000000000000000000000000000000005f82015250565b5f611008600f83610961565b915061101382610fd4565b602082019050919050565b5f6020820190508181035f83015261103581610ffc565b9050919050565b5f8151905061104a816109f8565b92915050565b5f60208284031215611065576110646109f0565b5b5f6110728482850161103c565b91505092915050565b5f60408201905061108e5f830185610ab0565b61109b602083018461092f565b9392505050565b6110ab81610a4d565b81146110b5575f5ffd5b50565b5f815190506110c6816110a2565b92915050565b5f602082840312156110e1576110e06109f0565b5b5f6110ee848285016110b8565b9150509291505056fea26469706673582212207832ae54c669533422c561d042755ec53ce6cbfb2c72d2a244d987beee76c86c64736f6c634300081c0033a264697066735822122040fcfede08e778ef318c33b08ddbe108cce758a75d37fbefc69e00aaa924a5aa64736f6c634300081c0033",
  "linkReferences": {},
  "deployedLinkReferences": {},
  "immutableReferences": {},
  "inputSourceName": "project/contracts/lockFactory/Factory.sol",
  "buildInfoId": "solc-0_8_28-3878972f30b2ac77061015aebed25242855ec126"
}